:100000000200B180338C208D218013758CFF758A9E
:1000100038D28C308D02800280F9C28DC28CAC2027
:10002000E521FD152170021520ED24FFEC648034DC
:100030007F4002800280D42280CB8032758CFFE525
:100040000525A0F5A0758A38E50525A0F5A0D28C78
:10005000E50525A0F5A08C208D218006E52125A0B1
:10006000F5A0308D02800280F3C28DC28C2280CC3C
:10007000802D75890175A0007C007D011200037C34
:10008000007D0812003A7C007D0112000375A080FB
:100090007CFF7DFC12003A7C007D0112000322806F
:1000A000D1E4F5D0758122F520F52112007002000F
:0400B000000200A1A9
:00000001FF
