:1000000002008F802A8C268D2730CF02800280F953
:10001000C2CFD290800CE52724FFF527E52634FFD8
:10002000F526E52745267002800280EAC2902280EC
:10003000D4804675220575232375240775253175EF
:10004000800075A0007590FE75CB8675CA8653C872
:10005000FCD2ADD2AFD2CAE580B40108852220859A
:100060002321800BE5A0B40106852420852521AC41
:1000700020AD2112000380DF2280B8E4F5D0758125
:100080002878207A08F608DAFC1200310200000213
:02009000007BF3
:00000001FF
