:1000000002013180108D998D248000309902800288
:1000100080F9C2992280EE0200A775220075235054
:10002000A9237769E5232401F87676E5232402F8ED
:100030007661E5232403F8766EE5232404F876310F
:10004000E5232405F87632E5232406F87633E52304
:100050002407F87634758920758DFD758780D28EDA
:10006000759840E4F520F521E52124F8E520648029
:10007000347F500280028002802AE5212523F58208
:10008000E5203522F5831200F61200030521E52153
:1000900070020520E52124F8E5206480347F5002B9
:1000A000800280D680FE2202001AE5836003E4937A
:1000B00022A882E622E5836004E4938003A882E616
:1000C000F822E5836004E4938003A882E6F922E540
:1000D000836004E4938003A882E6FA22E583600447
:1000E000E4938003A882E6FB22E5836004E4938026
:1000F00003A882E6FC22E5836004E4938003A882DF
:10010000E6FD22E5836004E4938003A882E6FE22F4
:10011000E5836004E4938003A882E6FF22E4F5D03F
:1001200075812578207A05F608DAFC12001702009E
:040130000002011DAB
:00000001FF
