:100000000200E9E5836003E49322A882E622E58307
:100010006004E4938003A882E6F822E5836004E4A8
:10002000938003A882E6F922E5836004E4938003C9
:10003000A882E6FA22E5836004E4938003A882E6BE
:10004000FB22E5836004E4938003A882E6FC22E5BA
:10005000836004E4938003A882E6FD22E5836004C4
:10006000E4938003A882E6FE22E5836004E49380A3
:1000700003A882E6FF22898288838B00EC4D6036DC
:10008000E4E0F608A31DBDFFF31C80F0B800118B5F
:1000900000EC4D6021E7F609081DBDFFF41C80F15E
:1000A000898288838B00EC4D600CE493F608A31DD5
:1000B000BDFFF31C80F022C000C001ED8BF0A4F85E
:1000C000A9F0ED8AF0A429F9EC8BF0A429FAE8FB59
:1000D000D001D00022E4F5D075815A78207A3AF622
:0C00E00008DAFC1201440200000200D506
:100100000605031E1D1B170F013F0136012E01417D
:100110000138013C0133012C013E01350139013028
:10012000012A013B01326C6F6C0039003800370046
:100130003600313500313400313300313200313195
:1001400000313000020334780179007A007B327D7F
:10015000037C0012008C780179037A007B357D05E1
:100160007C0012008C780179087A007B3A7D1E7C35
:100170000012008C75580175592675A0007580070E
:1001800075903875B00175B00075908075B00175C7
:10019000B000752E00752F63753000753163E4F57E
:1001A0002CF52D75A000758007E4F522F523E523D5
:1001B00024FBE52234FF50028002800302033074E6
:1001C000352523F987A0E4F520F521E52124FDE577
:1001D0002034FF500280028003020319743225216B
:1001E000F9E7B58002800302030275280075290132
:1001F000E4F52AF52BE52B24FCE52A34FF50028098
:10020000028002802874322521F9E7B5800480003D
:100210008005E4F528F529052BE52B7002052AE574
:100220002B24FCE52A34FF5002800280D8E52FB54C
:100230002115E52EB520108000E531B52309E53004
:10024000B52204800080048000800A052DE52D7011
:1002500002052C8005E4F52CF52DE5294528601CC8
:100260008000E52D452C7002800CE52D24FBE52C4B
:1002700034FF500480008002800280058000020369
:1002800002E52324FDE52234FF5002800280087538
:1002900026007527028006752600752701E4F524DF
:1002A000F52580407C007D05AA20AB211200B7EB2C
:1002B0002523FDEA3522FCEDC333FDEC33FC743A13
:1002C0002DF98702098703EB2525F582EA3524F508
:1002D00083120003F59075B00375B0020525E5257E
:1002E00070020524E526B52407E527B5250280061A
:1002F0005002800280AE85202E85212F85223085F8
:1003000023310521E52170020520E52124FDE520AA
:1003100034FF500280030201DC0523E5237002054F
:1003200022E52324FBE52234FF500280030201BFB3
:070330000201A322020147B4
:00000001FF
